:100000000C9462000C948A000C948A000C948A0070
:100010000C948A000C948A000C948A000C948A0038
:100020000C948A000C948A000C948A000C948A0028
:100030000C948A000C948A000C948A000C948A0018
:100040000C945D090C948A000C94FF0A0C948A00AD
:100050000C948A000C948A000C948A000C948A00F8
:100060000C948A000C948A000000000024002700F1
:100070002A0000000000250028002B0000000000DE
:1000800023002600290004040404040404040202DA
:100090000202020203030303030301020408102007
:1000A0004080010204081020010204081020000012
:1000B0000007000201000003040600000000000029
:1000C0000000180D11241FBECFEFD4E0DEBFCDBF5E
:1000D00011E0A0E0B1E0E8E8FAE202C005900D927C
:1000E000A433B107D9F711E0A4E3B1E001C01D9238
:1000F000A63DB107E1F710E0C4ECD0E004C02297C0
:10010000FE010E940715C23CD107C9F70E9456099B
:100110000C9442150C94000008954F925F926F92D8
:100120007F928F929F92AF92BF92CF92DF92EF9287
:10013000FF920F931F93CF93DF93EC013A014B0192
:1001400078018901CB01BA01A80197010E941B1413
:1001500087FF79C0C801B701A40193010E9467120B
:10016000D62EC72EB82EA92EA6019501652F742F65
:10017000832F922F2EA53FA548A959A90E941F148D
:100180002EE3422E512C4C0E5D1EF2012081318156
:10019000428153810E94D0127B018C01862F9F2DBA
:1001A000A02FB12F8EA79FA7A8ABB9ABA601950131
:1001B000652F742F832F922FF2012081318142818C
:1001C00053810E94D0129B01AC016AA97BA98CA922
:1001D0009DA90E941F146AAB7BAB8CAB9DAB6E2DAF
:1001E0007F2D802F912F20E030E040E85FE30E94D8
:1001F0001B1418162CF480E090E0A0E8BFE310C0B8
:100200006E2D7F2D802F912F20E030E040E050E0D8
:100210000E94CC12882344F480E090E0A0E0B0E09B
:100220008EA79FA7A8ABB9AB6AAE7BAE8CAE9DAED6
:10023000EE96A6019501852F9C2DA32FBA2D8883BC
:100240009983AA83BB83DF91CF911F910F91FF9078
:10025000EF90DF90CF90BF90AF909F908F907F9066
:100260006F905F904F9008956F927F928F929F92C0
:10027000AF92BF92CF92DF92EF92FF920F931F93B4
:10028000CF93DF93EC016A017B0148015901CB0157
:10029000BA01A90198010E941B1487FF63C0C50120
:1002A000B401A70196010E9467124B01782E692EB6
:1002B0009301792D832F922F2AA53BA54CA55DA5EF
:1002C0000E941F14FE01EA5BFF4F208131814281B1
:1002D00053810E94D012162F072FB82EA92EA801E5
:1002E0009501852F942FA32FB22F8AA79BA7ACA788
:1002F000BDA7652F742F832F922F20E030E040E8B8
:100300005FE30E941B1418162CF480E090E0A0E834
:10031000BFE312C0A8019501652F742F832F922F80
:1003200020E030E040E050E00E94CC12882344F40A
:1003300080E090E0A0E0B0E08AA79BA7ACA7BDA7B3
:10034000FE01EE5BFF4FC082D182E282F382CA5B84
:10035000DF4F9301882D992DA32FB62D8883998384
:10036000AA83BB83DF91CF911F910F91FF90EF90F4
:10037000DF90CF90BF90AF909F908F907F906F90C5
:1003800008953F924F925F926F927F928F929F92C9
:10039000AF92BF92CF92DF92EF92FF920F931F9393
:1003A000DF93CF93CDB7DEB72A970FB6F894DEBFB1
:1003B0000FBECDBF9A87898749835A836B837C831D
:1003C0004801590126013701CB01BA0120E030E094
:1003D00040E050E00E94CC12882309F4CCC0C50153
:1003E000B40120E030E040E050E00E94CC1287FDF4
:1003F000C2C0C701B60120E030E040E050E00E94FA
:10040000CC1287FDB8C089819A81AB81BC81E98516
:10041000FA8584879587A687B787808A918AA28A7A
:10042000B38AC48AD58AE68AF78A65A176A187A1AC
:1004300090A50E94691320E030E04AE754E40E944E
:10044000D012E62ED72EC82E392EC501B40120E0D9
:1004500030E040E050E00E94CC12882329F4FF24D1
:10046000882400E010E011C060E070E080E89FE3C5
:10047000A50194010E94D0122E2D3D2D4C2D532DFF
:100480000E941F14F62E872E8C01A985BA85999695
:100490008C919997882309F44CC06F2D782D802F6B
:1004A000912F20E030E040E050E00E94CC12882301
:1004B000B1F1E985FA85608171818281938124811E
:1004C0003581468157810E941F146D837E838F83FF
:1004D000988769817A818B819C81EF2DF82DD801D5
:1004E0009F01AD010E941F149B01AC016D817E81B3
:1004F0008F8198850E94D0129B01AC01A985BA8595
:10050000D2966D917D918D919C91D5970E941F14EB
:10051000E985FA8562AB73AB84AB95AB0AC080E02A
:1005200090E0A0E0B0E0E985FA8582AB93ABA4ABA4
:10053000B5AB89819A81AB81BC81E985FA858083DD
:100540009183A283B3838F2D982DA02FB12F848305
:100550009583A683B783C301B2012E2D3D2D4C2D6B
:10056000532D0E94D012A985BA8518966D937D935C
:100570008D939C931B972A960FB6F894DEBF0FBEFF
:10058000CDBFCF91DF911F910F91FF90EF90DF9042
:10059000CF90BF90AF909F908F907F906F905F9023
:1005A0004F903F9008950F931F93CF93DF93EC01EB
:1005B00088A1FE01EE5BFF4F8E010A5B1F4F88236F
:1005C00019F0AE8DBF8D02C0AA8DBB8D6D917D914E
:1005D0008D919C9120813181428153810E946712CB
:1005E000F80120813181428153810E94D0126EAB8B
:1005F0007FAB88AF99AF8EA99FA9A8ADB9AD8AA7E7
:100600009BA7ACA7BDA7E88DF98D60817181828120
:1006100093812AAD3BAD4CAD5DAD0E946712FE01EA
:10062000FE9620813181428153810E94D0126EA7B3
:100630007FA788AB99AB80E090E0A0E0B0E08AAB08
:100640009BABACABBDABDF91CF911F910F910895E8
:100650000F931F93CF93DF93EC018B01611571050D
:1006600031F089A5882319F4CE010E94D30219A67E
:100670000115110511F081E089A7DF91CF911F913C
:100680000F9108952F923F924F925F926F927F92B7
:100690008F929F92AF92BF92CF92DF92EF92FF9292
:1006A0000F931F93CF93DF93EC01161617060CF0F0
:1006B00049C01B01442437FC4094542CC201B101B1
:1006C0000E946B135B016C016DA17EA18FA198A5A7
:1006D0000E9469137B018C01C601B501A801970135
:1006E0000E94D0123B014C016C817D818E819F81E3
:1006F000A40193010E941F146C837D838E839F83CA
:10070000C801B701A60195010E94D0129B01AC015E
:100710006AA97BA98CA99DA90E941F146AAB7BAB17
:100720008CAB9DAB688579858A859B85A4019301F7
:100730000E941F14688779878A879B872DA23EA213
:100740004FA258A6DF91CF911F910F91FF90EF908C
:10075000DF90CF90BF90AF909F908F907F906F90E1
:100760005F904F903F902F900895FC01E65BFF4F04
:1007700080810895FC0181A590E00895FC0152ADAF
:1007800043AD34AD25AD652F742F832F922F08957F
:10079000FC01FE96DC01DA966D917D918D919C9124
:1007A000DD9720813181428153810E946812089532
:1007B000FC01EE5BFF4F5081418132812381652F27
:1007C000742F832F922F0895DC01AE5BBF4FFC0185
:1007D000EA5BFF4F6D917D918D919C9120813181DC
:1007E000428153810E9468120895FC0185A196A15F
:1007F0000895FC015485458536852785652F742F1E
:10080000832F922F0895FC015089418932892389D1
:10081000652F742F832F922F0895FC0154894589E9
:1008200036892789652F742F832F922F08952F9251
:100830003F924F925F926F927F928F929F92AF9270
:10084000BF92CF92DF92EF92FF920F931F93CF93BD
:10085000DF93EC01FC01E65BFF4F108289A5882342
:1008600009F4AAC10E94A5091B012C0189A19AA122
:10087000ABA1BCA1281639064A065B0608F49CC148
:10088000AAACBBACCCACDDACFE01FE966080718046
:1008900082809380E88DF98D60817181828193815E
:1008A000A60195010E946712A40193010E94D01233
:1008B0007B018C017F2D912F20E030E040E85FE349
:1008C0000E941B1418162CF4EE24FF2400E81FE3EA
:1008D00010C06E2D7F2D802F912F20E030E040E062
:1008E00050E00E94CC12882324F4EE24FF2400E080
:1008F00010E0EC8DFD8D6081718182819381A60174
:1009000095010E946712A40193010E94D012D62E75
:10091000C72EB82EA92EA6019501652F742F832FFF
:10092000922F20E030E040E85FE30E941B1418168D
:100930003CF4DD24CC2460E8B62E5FE3A52E12C083
:10094000A6019501652F742F832F922F20E030E0B0
:1009500040E050E00E94CC12882324F4DD24CC2413
:10096000BB24AA24A6019501652F7C2D832F9A2DE7
:100970002E2D3F2D402F512F0E946712D62EC72EAD
:10098000B82EA92E6AA47BA48CA49DA4C401B30193
:1009900020E030E040E85FE30E941B14882374F0FD
:1009A000A6019501652F742F832F922F20E030E050
:1009B00040E050E00E941B14181644F1C401B3013A
:1009C00020E030E040E050E00E94CC12181674F0B5
:1009D000A6019501652F7C2D832F9A2D20E030E014
:1009E00040E050E00E94CC1287FD10C06AA97BA9AC
:1009F0008CA99DA9D601F5012B2F3C2D4F2F5A2DE7
:100A00000E9468126AAB7BAB8CAB9DAB6EA47FA4DB
:100A100088A899A888A18823E1F0AE8DBF8DFE013A
:100A2000EE5BFF4F6D917D918D919C912081318185
:100A3000428153810E946712FE01EA5BFF4F2081D1
:100A40003181428153810E94D0126EAB7FAB88AF5F
:100A500099AF6C817D818E819F812AA93BA94CA988
:100A60005DA90E941F149B01AC01D601F5016B2FFB
:100A70007C2D8F2F9A2D0E9468125B016C016E2DC8
:100A80007F2D802F912FA40193010E94671228854A
:100A900039854A855B850E941F149B01AC01C60104
:100AA000B5010E946712288139814A815B810E94C9
:100AB0001F142EA93FA948AD59AD0E946812D62E29
:100AC000C72EB82EA92EA6019501652F742F832F4E
:100AD000922F20E030E040E050E00E94CC128823CA
:100AE0002CF4DD24CC24BB24AA2414C0A601950137
:100AF000652F742F832F922F20E030E040E85FE3D2
:100B00000E941B14181634F4DD24CC2440E8B42EC3
:100B10003FE3A32EA6019501852F9C2DA32FBA2D6F
:100B20008AA79BA7ACA7BDA78E2D9F2DA02FB12F65
:100B30008EA79FA7A8ABB9AB0A8D1B8DFE01EA5B00
:100B4000FF4FA6019501652F7C2D832F9A2D2081C3
:100B50003181428153810E941F14FE01EE5BFF4FE1
:100B600020813181428153810E946812F8016083A3
:100B70007183828393832DA13EA14FA158A589A1A2
:100B80009AA1ABA1BCA1820F931FA41FB51F89A37B
:100B90009AA3ABA3BCA382159305A405B50540F4A5
:100BA000220E331E441E551E29A23AA24BA25CA25D
:100BB000C65BDF4F81E08883DF91CF911F910F915A
:100BC000FF90EF90DF90CF90BF90AF909F908F906D
:100BD0007F906F905F904F903F902F9008952F924D
:100BE0003F924F925F926F927F928F929F92AF92BD
:100BF000BF92CF92DF92EF92FF920F931F93DF93FA
:100C0000CF9300D000D0CDB7DEB74C017A83698393
:100C10001A013C832B832701380140E050E060E05B
:100C200070E000E010EC2FE734E40E948D00C40176
:100C300040E050E060E070E000E010E02FE733E4D7
:100C40000E94340188EE93E0A0E0B0E0F40185A3B7
:100C500096A3A7A3B0A7C401B301A2019601850181
:100C6000C98CDA8CEB8CFC8C0E94C1010E94A50916
:100C7000F40161A372A383A394A311A6338E228EE1
:100C800089819A81918F808F8B819C81958F848FB0
:100C90000F900F900F900F90CF91DF911F910F91B8
:100CA000FF90EF90DF90CF90BF90AF909F908F908C
:100CB0007F906F905F904F903F902F9008954F924C
:100CC0005F926F927F928F929F92AF92BF92CF92DC
:100CD000DF92EF92FF920F931F93DF93CF93CDB7E5
:100CE000DEB73C012801870176016501540100D07F
:100CF00000D08B899C89AD89BE89EDB7FEB7818311
:100D00009283A383B483C3010E94EF0581E0F301C2
:100D100080A3578E468E0F900F900F900F90C301B7
:100D20000E94D302CF91DF911F910F91FF90EF901E
:100D3000DF90CF90BF90AF909F908F907F906F90FB
:100D40005F904F9008954F925F926F927F928F9233
:100D50009F92AF92BF92CF92DF92EF92FF920F934A
:100D60001F93DF93CF93CDB7DEB73C0128018701F6
:100D700076016501540100D000D08B899C89AD8932
:100D8000BE89EDB7FEB781839283A383B483C30189
:100D90000E94EF0581E0F30180A3578E468E0F90ED
:100DA0000F900F900F90C3010E94D302CF91DF915B
:100DB0001F910F91FF90EF90DF90CF90BF90AF9079
:100DC0009F908F907F906F905F904F9008958F923B
:100DD0009F92AF92BF92CF92DF92EF92FF920F93CA
:100DE0001F93DF93CF93CDB7DEB74C0100D000D077
:100DF0008F859889A989BA89EDB7FEB781839283D7
:100E0000A383B483C4010E94EF05F40110A20F90E4
:100E10000F900F900F90C4010E94D302CF91DF91E9
:100E20001F910F91FF90EF90DF90CF90BF90AF9008
:100E30009F908F9008958F929F92AF92BF92CF9282
:100E4000DF92EF92FF920F931F93DF93CF93CDB773
:100E5000DEB74C0100D000D08F859889A989BA8966
:100E6000EDB7FEB781839283A383B483C4010E944C
:100E7000EF05F40110A20F900F900F900F90C40196
:100E80000E94D302CF91DF911F910F91FF90EF90BD
:100E9000DF90CF90BF90AF909F908F9008952F924A
:100EA0003F925F926F927F928F929F92AF92BF928A
:100EB000CF92DF92EF92FF920F931F93CF93DF9326
:100EC000E82EEB011A01C22E532E622E732E8824B7
:100ED00099243DC08E2D60E00E94660A8DE061E09D
:100EE0000E94660A8DE060E00E94660A7BE0A72E01
:100EF000B12C8DE061E00E94660A8CE00E94B20A8B
:100F00000A2C02C0880F991F0A94E2F7880E991ED6
:100F10008DE060E00E94660A0894A108B1088FEF96
:100F2000A8168FEFB80629F78DE061E00E94660AE7
:100F30008CE00E94B20A5C018DE060E00E94660ACB
:100F40008E2D61E00E94660A0894610871081614EB
:100F500017040CF4BFCFC4016C2D752D0E94A11491
:100F6000260E371E2097C1F4B10180E090E00E9468
:100F7000691320E030E040E85EE30E941F1426E69B
:100F800036E646EE5FE30E941F1420E030E040E0CA
:100F900052E40E9468120EC0C130D10579F4B1014B
:100FA00080E090E00E94691320E030E040E85EE3DA
:100FB0000E941F14F62E072F182FD92EA114B1044A
:100FC00019F06FE077E20CC06F2D702F812F9D2DEF
:100FD00020E030E040E251E40E941F140E943D13E3
:100FE000CB01DF91CF911F910F91FF90EF90DF9098
:100FF000CF90BF90AF909F908F907F906F905F90B9
:101000003F902F90089566E070E080E090E00E94AD
:10101000D9090895EF92FF920F931F93CF93DF9317
:101020007C01EC0109900020E9F7C81BD90B22973D
:1010300000E010E00EC0F701E00FF11F83EC91E03B
:10104000608140E050E00E94940E0E9403080F5F10
:101050001F4FC017D1077CF7DF91CF911F910F91E0
:10106000FF90EF9008950F931F93DF93CF93CDB729
:10107000DEB727970FB6F894DEBF0FBECDBF83EC67
:1010800091E06EEF70E040E050E00E94810E0E941F
:10109000030883EC91E060E870E040E050E00E94DB
:1010A000810E0E94030883EC91E06EEF70E040E057
:1010B00050E00E94810E0E94030883EC91E061E001
:1010C00070E040E050E00E94810E0E94030880E042
:1010D00091E00E940A0840913401509135018BE063
:1010E00090E061E070E02AE030E00E944F079C0150
:1010F000F999FECF12BC11BCF89A90B54DB75EB706
:10110000485050400FB6F8945EBF0FBE4DBFEDB7CC
:10111000FEB731968E010F5F1F4FADB7BEB7129667
:101120001C930E93119747E051E05383428335831C
:101130002483968317820E94CD0F4DB75EB7485F18
:101140005F4F0FB6F8945EBF0FBE4DBFC8010E943F
:101150000A0883EC91E06EEF70E040E050E00E94FE
:10116000810E0E94030883EC91E060EC70E040E0A7
:1011700050E00E94810E0E9403088AE00E94B20A99
:101180008130910591F4F999FECF12BC11BCF89A07
:1011900080B5F999FECF1FBA12BC11BC8F5F80BD1C
:1011A0000FB6F894FA9AF99A0FBE89E00E94B20A33
:1011B0008130910591F4F999FECF12BC11BCF89AD7
:1011C00080B5F999FECF1FBA12BC11BC815080BD09
:1011D0000FB6F894FA9AF99A0FBE409134015091E3
:1011E00035018BE090E061E070E02AE030E00E94A1
:1011F0004F07F999FECF12BC11BCF89A20B56AE0EE
:1012000070E00E94A11430E06217730738F488E0A0
:1012100061E00E94660A8DE091E006C088E060E02F
:101220000E94660A85E191E00E940A086CE271E082
:1012300080E090E00E94D90927960FB6F894DEBFAF
:101240000FBECDBFCF91DF911F910F9108958AE01E
:1012500060E00E94470A89E060E00E94470A8CE053
:1012600060E00E94470A8DE061E00E94470A88E042
:1012700061E00E94470A88E060E00E94660A8BE015
:1012800061E00E94470A8BE061E00E94660A83ECFD
:1012900091E040E659E060E070E00E949D0B64EF51
:1012A00071E080E090E00E94D90908950E940D0A43
:1012B0000E9427090E943308FDCF1F920F920FB69C
:1012C0000F9211242F933F938F939F93AF93BF93CC
:1012D00080913A0190913B01A0913C01B0913D0178
:1012E00030913E010196A11DB11D232F2D5F2D3799
:1012F00020F02D570196A11DB11D20933E01809332
:101300003A0190933B01A0933C01B0933D01809141
:10131000360190913701A0913801B09139010196C1
:10132000A11DB11D8093360190933701A093380120
:10133000B0933901BF91AF919F918F913F912F91C0
:101340000F900FBE0F901F9018958FB7F8942091B3
:101350003A0130913B0140913C0150913D018FBFDA
:10136000B901CA0108959FB7F894209136013091D0
:101370003701409138015091390186B5A89B06C0CC
:101380008F3F21F02F5F3F4F4F4F5F4F9FBF542F35
:10139000432F322F2227280F311D411D511D82E07E
:1013A000220F331F441F551F8A95D1F7B901CA0177
:1013B0000895EF92FF920F931F937B018C018FB7DB
:1013C000F89420913A0130913B0140913C015091B9
:1013D0003D018FBF6FB7F89480913A0190913B0126
:1013E000A0913C01B0913D016FBF821B930BA40BF8
:1013F000B50BE816F9060A071B0760F71F910F9156
:10140000FF90EF900895019739F0880F991F880F8A
:10141000991F02970197F1F70895789484B5826037
:1014200084BD84B5816084BD85B5826085BD85B588
:10143000816085BDEEE6F0E0808181608083E1E837
:10144000F0E0808182608083808181608083E0E839
:10145000F0E0808181608083E1EBF0E08081846056
:101460008083E0EBF0E0808181608083EAE7F0E058
:1014700080818460808380818260808380818160BC
:1014800080838081806880831092C1000895282F16
:1014900030E0C90186569F4FFC019491F901EA574B
:1014A000FF4FE491EE2389F0F0E0EE0FFF1FE859C3
:1014B000FF4FA591B491662329F48C9190958923CF
:1014C0008C9308958C91892B8C930895482F50E02C
:1014D000CA0182559F4FFC0194919A0126563F4FB5
:1014E000F9012491FA01EA57FF4FE491EE23C9F183
:1014F000992331F1933021F4909180009F7705C0BA
:10150000943031F4909180009F7D9093800018C0BA
:10151000913019F494B59F7704C0923021F494B5BA
:101520009F7D94BD0DC0963021F49091B0009F77BF
:1015300005C0973029F49091B0009F7D9093B00042
:10154000F0E0EE0FFF1FEE58FF4FA591B491662318
:1015500029F48C91209582238C9308958C91822B71
:101560008C930895282F30E0C90182559F4FFC01CC
:101570009491A90146565F4FFA014491F901EA5747
:10158000FF4FE491EE2319F420E030E036C09923B8
:1015900031F1933021F4909180009F7705C0943011
:1015A00031F4909180009F7D9093800018C091301D
:1015B00019F494B59F7704C0923021F494B59F7DBF
:1015C00094BD0DC0963021F49091B0009F7705C076
:1015D000973029F49091B0009F7D9093B000F0E097
:1015E000EE0FFF1FE458FF4FA591B4918C9120E0BE
:1015F00030E0842311F021E030E0C90108951F920A
:101600000F920FB60F9211242F933F934F935F9336
:101610006F937F938F939F93AF93BF93EF93FF93BA
:101620004091C6002091BF013091C001C9010196CF
:1016300060E870E00E94B514BC018091C1019091F6
:10164000C2016817790741F0215C3E4FF9014083E0
:101650007093C0016093BF01FF91EF91BF91AF9173
:101660009F918F917F916F915F914F913F912F91BA
:101670000F900FBE0F901F9018958F92AF92CF9240
:10168000DF92EF92FF920F931F93DF93CF93CDB72B
:10169000DEB7FC0181E291E09183808373836283F2
:1016A000558344833783268311870087F386E28638
:1016B000D586C486A68687868D85808B8E85818B10
:1016C0008F85828BCF91DF911F910F91FF90EF90CB
:1016D000DF90CF90AF908F9008958F92AF92CF927E
:1016E000DF92EF92FF920F931F93DF93CF93CDB7CB
:1016F000DEB7FC0181E291E0918380837383628392
:10170000558344833783268311870087F386E286D7
:10171000D586C486A68687868D85808B8E85818BAF
:101720008F85828BCF91DF911F910F91FF90EF906A
:10173000DF90CF90AF908F9008958F929F92AF924D
:10174000BF92DF92EF92FF920F931F93CF93DF939D
:10175000EC017A018B01413482E458078FE068077D
:1017600080E078070CF07FC060E874E88EE190E0DC
:10177000A80197010E94EA14CA01B90161507040A2
:101780008040904022E030E040E050E00E94EA14C7
:1017900049015A01A5019401209530954095509535
:1017A00094E0220F331F441F551F9A95D1F760E034
:1017B00074E284EF90E00E94EA14CA01B9012FEFAD
:1017C00030E040E050E00E948214A80197010E949E
:1017D000EA14C90121503F4F121613061CF4D82EEB
:1017E000DA9403C0DD24D394D81A60E079E08DE365
:1017F00090E0A80197010E94EA14CA01B901615062
:1018000070408040904022E030E040E050E00E9494
:10181000EA14209530954095509583E0220F331FB0
:10182000441F551F8A95D1F760E074E284EF90E081
:101830000E94EA14CA01B9012FEF30E040E050E005
:101840000E948214A80197010E94EA14C901215044
:101850003F4F121613061CF4282F215002C021E01E
:10186000281B2D1500F5E885F98581E090E00A88B0
:1018700002C0880F991F0A94E2F7808360E079E044
:101880008DE390E0A80197010E94EA14CA01B90112
:10189000615070408040904022E030E040E050E0F5
:1018A0000E94EA1404C0E885F98510829401EC8155
:1018B000FD813083EE81FF812083EA85FB85808175
:1018C00021E030E0A9010E8402C0440F551F0A94A4
:1018D000E2F7842B8083EA85FB858081A9010F8450
:1018E00002C0440F551F0A94E2F7842B8083EA85D7
:1018F000FB858081088802C0220F331F0A94E2F71B
:10190000822B8083DF91CF911F910F91FF90EF90F9
:10191000DF90BF90AF909F908F900895FC01A285BB
:10192000B3853C9181E090E0AC01068402C0440F95
:10193000551F0A94E2F7242F209523232C93A28588
:10194000B3853C91AC01078402C0440F551F0A9433
:10195000E2F7242F209523232C93A285B3852C9185
:10196000008802C0880F991F0A94E2F780958223AD
:101970008C930895FC0122813381F901E058FF4FD7
:101980008081918180589F4F2E573F4FF9012081D0
:101990003181821B930B60E870E00E94B5140895BA
:1019A000DC0112962D913C911397F901EE57FF4FF0
:1019B00080819181D901A058BF4F4D915C911197C1
:1019C0004817590719F42FEF3FEF0CC0280F391FA4
:1019D000D9012C91019660E870E00E94B5149183C2
:1019E000808330E0C9010895DC0112968D919C91AD
:1019F0001397FC01E058FF4F8E579F4FDC018D91EC
:101A00009C911197918380830895FC01A085B185F5
:101A100021898C9190E0022E02C0959587950A94B9
:101A2000E2F780FFF6CF0484F585E02D608308950A
:101A300081E291E09093C4018093C3018FE391E030
:101A40009093C6018093C50185EC90E09093C80106
:101A50008093C70184EC90E09093CA018093C90100
:101A600080EC90E09093CC018093CB0181EC90E0EE
:101A70009093CE018093CD0186EC90E09093D001BD
:101A80008093CF0184E08093D10183E08093D201E1
:101A900087E08093D30185E08093D40181E0809337
:101AA000D50108950F931F93CF93DF93EC018B0122
:101AB00009C00F5F1F4FE881F9810190F081E02D8F
:101AC000CE010995F8016081662399F7DF91CF91E6
:101AD0001F910F910895EF92FF920F931F93CF9351
:101AE000DF93EC018B017A010DC0F80161918F0148
:101AF000E881F9810190F081E02DCE0109950894EB
:101B0000E108F108E114F10481F7DF91CF911F9111
:101B10000F91FF90EF900895DC01ED91FC91028010
:101B2000F381E02D099508952F923F924F925F9295
:101B30006F927F928F929F92AF92BF92CF92DF92DD
:101B4000EF92FF920F931F93DF93CF93CDB7DEB742
:101B5000A2970FB6F894DEBF0FBECDBF1C015A018D
:101B60006B01411551056105710549F440E350E0F1
:101B700060E070E020E030E00E944B0E55C0EE24A3
:101B8000FF248701622E7724882499242E0108944B
:101B9000411C511CC2018E0D9F1D9AA389A3C60131
:101BA000B501A40193010E94C814E9A1FAA16083C0
:101BB0000894E11CF11C011D111DC601B501A40111
:101BC00093010E94C814A22EB32EC42ED52EA114A8
:101BD000B104C104D104F1F6570168010894A108C9
:101BE000B108C108D108A40CB51C19C00894E108BB
:101BF000F10801091109F50140814A3010F4405DF6
:101C000001C0495C552747FD5095652F752FC101CF
:101C100020E030E00E944B0E0894A108B108E114C6
:101C2000F1040105110511F7A2960FB6F894DEBF75
:101C30000FBECDBFCF91DF911F910F91FF90EF901D
:101C4000DF90CF90BF90AF909F908F907F906F90DC
:101C50005F904F903F902F9008952115310549F4E2
:101C6000DC01ED91FC910190F081E02D642F09954C
:101C700008950E94940D08959A01AB0160E070E010
:101C80000E942D0E08959A01462F50E060E070E00A
:101C90000E942D0E0895EF92FF920F931F93CF9302
:101CA000DF93EC017A018B012115310541F4E881C4
:101CB000F9810190F081E02D642F09951BC02A3035
:101CC0003105B1F477FF10C04DE250E060E070E004
:101CD00020E030E00E944B0E10950095F094E094C7
:101CE000E11CF11C011D111DCE01B801A7012AE064
:101CF0000E94940DDF91CF911F910F91FF90EF9073
:101D00000895EF92FF920F931F939A017B01002792
:101D1000F7FC0095102FB801A7010E944B0E1F91F0
:101D20000F91FF90EF9008959A01462F552747FD98
:101D30005095652F752F0E944B0E0895CF93DF931A
:101D4000EC014DE050E060E070E020E030E00E9407
:101D50004B0ECE014AE050E060E070E020E030E061
:101D60000E944B0EDF91CF910895CF93DF93EC014A
:101D70000E942D0ECE010E949E0EDF91CF910895FC
:101D8000CF93DF93EC019A01AB0160E070E00E9419
:101D90002D0ECE010E949E0EDF91CF910895CF931C
:101DA000DF93EC019A01462F50E060E070E00E9462
:101DB0002D0ECE010E949E0EDF91CF910895CF93FC
:101DC000DF93EC010E948C0DCE010E949E0EDF91EC
:101DD000CF910895CF93DF93EC010E944B0ECE017B
:101DE0000E949E0EDF91CF910895CF93DF93EC0177
:101DF000CB019A01AC01662757FD6095762FCE0185
:101E00000E944B0ECE010E949E0EDF91CF9108954D
:101E1000CF93DF93EC019A01462F552747FD50954C
:101E2000652F752F0E944B0ECE010E949E0EDF91F2
:101E3000CF9108959F92AF92BF92CF92DF92EF928F
:101E4000FF920F931F93CF93DF93EC016A017B0105
:101E5000122FCB01BA0120E030E040E050E00E94B8
:101E6000CC1288236CF4CE014DE250E060E070E0CB
:101E700020E030E00E944B0EF7FAF094F7F8F0946F
:101E800000E050E040E030E02FE311C0DA01F9015A
:101E90006B2F742F8F2F922F20E030E040E251E41F
:101EA0000E94D012562F472F382F292F0F5F01176E
:101EB00068F3C701B601DA01F9012B2F342F4F2F38
:101EC0005E2F0E946812D62EB72EA82E992E0E9441
:101ED0003D13F62EC72E082FE92ECE014F2D5C2D77
:101EE000602F7E2D2AE030E00E942D0E112329F074
:101EF000CE0167E271E00E948C0D6F2D7C2D802F4A
:101F00009E2D0E9469139B01AC016D2D7B2D8A2DA6
:101F1000992D0E94671225C020E030E040E251E494
:101F20000E941F14062FB72EA82E992E0E94381338
:101F30006B01EE24D7FCE094FE2CCE01B701A60184
:101F40002AE030E00E944B0EC701B6010E946B13DD
:101F50009B01AC01602F7B2D8A2D992D0E94671269
:101F600011501123C9F6DF91CF911F910F91FF906E
:101F7000EF90DF90CF90BF90AF909F9008950E9418
:101F80001A0F0895CF93DF93EC010E941A0FCE0130
:101F90000E949E0EDF91CF910895AEE0B0E0E3ED98
:101FA000FFE00C9419150D891E8986E08C831A8335
:101FB00009838FEF9FE79E838D839E01275E3F4FAE
:101FC000CE0101966F89788DA9010E94F10F2F81B2
:101FD0003885020F131FF80110822E96E4E00C944E
:101FE0003515ABE0B0E0E7EFFFE00C940B153C01DA
:101FF0002B016A01FC0117821682838181FD03C0D7
:102000006FEF7FEFBFC19AE0892E1E010894211C5B
:10201000311CF3012381F20123FD859123FF81917E
:102020002F01882309F4ABC1853239F423FD859152
:1020300023FF81912F01853229F490E0B3010E94A2
:10204000DD11E7CF982FFF24EE249924FFE1FF153F
:10205000B8F0903261F0933281F09B3231F09D32D2
:1020600049F0903369F441E024C052E0F52A84E05D
:10207000F82A28C098E0F92A25C0E0E1FE2A22C00B
:10208000F7FC29C0892F80538A3070F4F6FE05C012
:10209000989C902C1124980E15C0E89CE02C1124DB
:1020A000E80EF0E2FF2A0EC09E3229F4F6FC67C16A
:1020B00040E4F42A07C09C3619F450E8F52A02C01F
:1020C000983649F4F20123FD959123FF91912F0158
:1020D000992309F0BBCF892F8554833018F08052A3
:1020E000833038F444E050E0C40ED51E5FE35983DA
:1020F0000FC0933531F1933621F0933709F056C074
:102100000BC0F6018081898342E050E0C40ED51EE9
:10211000510101E010E012C0F601A080B180F6FC90
:1021200003C06FEF7FEF02C0692D70E042E050E026
:10213000C40ED51EC5010E94D2118C015FE7F522A5
:1021400014C0F601A080B180F6FC03C06FEF7FEFF2
:1021500002C0692D70E042E050E0C40ED51EC501FA
:102160000E94C7118C0150E8F52AF3FE07C01AC07F
:1021700080E290E0B3010E94DD11EA948E2D90E0A0
:1021800008171907A8F30EC0F501F7FC8591F7FEB3
:1021900081915F0190E0B3010E94DD11E110EA94AA
:1021A000015010400115110579F7E6C0943611F081
:1021B000993669F5F7FE08C0F60120813181428128
:1021C000538184E090E00AC0F601808191819C01F6
:1021D000442737FD4095542F82E090E0C80ED91E69
:1021E0009FE6F92257FF09C05095409530952195FB
:1021F0003F4F4F4F5F4FE0E8FE2ACA01B901A101EE
:102200002AE030E00E940912B82EB2183CC095377F
:1022100029F41F2D1F7E2AE030E019C01F2D197FE1
:10222000983589F09F3631F0903739F0983709F0BA
:10223000A6C004C028E030E00AC0106114FD14609C
:1022400020E130E004C014FD166020E132E017FF09
:1022500008C0F601608171818281938144E050E081
:1022600008C0F60180819181BC0180E090E042E0ED
:1022700050E0C40ED51EA1010E940912B82EB2185A
:102280008FE7F82EF122F6FE0BC05EEFF522B914AF
:1022900038F4F4FE07C0F2FC05C08FEEF82202C04D
:1022A0001B2D01C0192DF4FE0DC0FE01EB0DF11D1B
:1022B0008081803319F499EEF92208C01F5FF2FE85
:1022C00005C003C08F2D867809F01F5F0F2DF3FC2A
:1022D00014C0F0FE0FC01E1510F09B2C0BC09B2CE1
:1022E0009E0C911A1E2D06C080E290E0B3010E9460
:1022F000DD111F5F1E15C0F304C01E1510F4E11A96
:1023000001C0EE2404FF0FC080E390E0B3010E94FF
:10231000DD1102FF1DC001FD03C088E790E00EC083
:1023200088E590E00BC0802F867891F001FF02C015
:102330008BE201C080E2F7FC8DE290E0B3010E94E5
:10234000DD1106C080E390E0B3010E94DD119A9494
:10235000B914C0F3BA94F101EB0DF11D808190E046
:10236000B3010E94DD11BB20A9F706C080E290E016
:10237000B3010E94DD11EA94EE20C1F74ACEF301C9
:1023800066817781CB012B96E2E10C942715FC0145
:102390000590615070400110D8F7809590958E0F90
:1023A0009F1F0895FC016150704001900110D8F703
:1023B000809590958E0F9F1F08950F931F93CF9335
:1023C000DF938C01EB018B8181FF1BC082FF0DC06D
:1023D0002E813F818C819D812817390764F4E88123
:1023E000F9810193F983E88306C0E885F985802F98
:1023F0000995892B31F48E819F8101969F838E836D
:1024000002C00FEF1FEFC801DF91CF911F910F9115
:102410000895FA01AA27283051F1203181F1E8947A
:102420006F936E7F6E5F7F4F8F4F9F4FAF4FB1E0C7
:102430003ED0B4E03CD0670F781F891F9A1FA11DC2
:10244000680F791F8A1F911DA11D6A0F711D811DC3
:10245000911DA11D20D009F468943F912AE0269F88
:1024600011243019305D3193DEF6CF010895462FE7
:102470004770405D4193B3E00FD0C9F7F6CF462FC8
:102480004F70405D4A3318F0495D31FD4052419331
:1024900002D0A9F7EACFB4E0A695979587957795EE
:1024A0006795BA95C9F700976105710508959B0175
:1024B000AC010A2E06945795479537952795BA95FE
:1024C000C9F7620F731F841F951FA01D08955058F0
:1024D000BB27AA270ED075C166D130F06BD120F092
:1024E00031F49F3F11F41EF45BC10EF4E095E7FB5D
:1024F00051C1E92F77D180F3BA17620773078407B8
:10250000950718F071F49EF58FC10EF4E0950B2E2F
:10251000BA2FA02D0B01B90190010C01CA01A00135
:102520001124FF27591B99F0593F50F4503E68F190
:102530001A16F040A22F232F342F4427585FF3CFD1
:10254000469537952795A795F0405395C9F77EF4A2
:102550001F16BA0B620B730B840BBAF09150A1F0EB
:10256000FF0FBB1F661F771F881FC2F70EC0BA0F71
:10257000621F731F841F48F4879577956795B795F9
:10258000F7959E3F08F0B3CF9395880F08F09927F1
:10259000EE0F979587950895D9D008F481E00895B6
:1025A0000CD00FC107D140F0FED030F021F45F3FD6
:1025B00019F0F0C0511139C1F3C014D198F3992327
:1025C000C9F35523B1F3951B550BBB27AA276217F7
:1025D0007307840738F09F5F5F4F220F331F441F3C
:1025E000AA1FA9F333D00E2E3AF0E0E830D0915074
:1025F0005040E695001CCAF729D0FE2F27D0660F61
:10260000771F881FBB1F261737074807AB07B0E89F
:1026100009F0BB0B802DBF01FF2793585F4F2AF0B5
:102620009E3F510568F0B6C000C15F3FECF3983E95
:10263000DCF3869577956795B795F7959F5FC9F712
:10264000880F911D9695879597F90895E1E0660F9B
:10265000771F881FBB1F621773078407BA0720F014
:10266000621B730B840BBA0BEE1F88F7E09508957D
:1026700004D06894B111D9C00895BCD088F09F5798
:1026800090F0B92F9927B751A0F0D1F0660F771FBE
:10269000881F991F1AF0BA95C9F712C0B13081F09E
:1026A000C3D0B1E00895C0C0672F782F8827B85FE6
:1026B00039F0B93FCCF3869577956795B395D9F7FF
:1026C0003EF490958095709561957F4F8F4F9F4F09
:1026D0000895E89409C097FB3EF490958095709515
:1026E00061957F4F8F4F9F4F9923A9F0F92F96E95E
:1026F000BB279395F695879577956795B795F111D3
:10270000F8CFFAF4BB0F11F460FF1BC06F5F7F4F6F
:102710008F4F9F4F16C0882311F096E911C0772381
:1027200021F09EE8872F762F05C0662371F096E88A
:10273000862F70E060E02AF09A95660F771F881F59
:10274000DAF7880F9695879597F90895990F0008FD
:10275000550FAA0BE0E8FEEF16161706E807F90773
:10276000C0F012161306E407F50798F0621B730B0E
:10277000840B950B39F40A2661F0232B242B252B8F
:1027800021F408950A2609F4A140A6958FEF811D32
:10279000811D089597F99F6780E870E060E00895D3
:1027A0009FEF80EC089500240A9416161706180669
:1027B0000906089500240A94121613061406050645
:1027C0000895092E0394000C11F4882352F0BB0FD6
:1027D00040F4BF2B11F460FF04C06F5F7F4F8F4F39
:1027E0009F4F089557FD9058440F551F59F05F3F74
:1027F00071F04795880F97FB991F61F09F3F79F023
:1028000087950895121613061406551FF2CF4695A4
:10281000F1DF08C0161617061806991FF1CF869526
:102820007105610508940895E894BB27662777270A
:10283000CB0197F908958ADF08F48FEF08950BD044
:10284000C0CFB1DF28F0B6DF18F0952309F0A2CF92
:10285000A7CF1124EACFC6DFA0F3959FD1F3950F40
:1028600050E0551F629FF001729FBB27F00DB11D14
:10287000639FAA27F00DB11DAA1F649F6627B00DA4
:10288000A11D661F829F2227B00DA11D621F739F8D
:10289000B00DA11D621F839FA00D611D221F749F9B
:1028A0003327A00D611D231F849F600D211D822FE2
:1028B000762F6A2F11249F5750408AF0E1F0882329
:1028C0004AF0EE0FFF1FBB1F661F771F881F915036
:1028D0005040A9F79E3F510570F05CCFA6CF5F3FF7
:1028E000ECF3983EDCF3869577956795B795F79569
:1028F000E7959F5FC1F7FE2B880F911D96958795F1
:1029000097F90895629FD001739FF001829FE00DB7
:10291000F11D649FE00DF11D929FF00D839FF00D5E
:10292000749FF00D659FF00D9927729FB00DE11D0A
:10293000F91F639FB00DE11DF91FBD01CF011124E7
:102940000895AA1BBB1B51E107C0AA1FBB1FA617F6
:10295000B70710F0A61BB70B881F991F5A95A9F748
:1029600080959095BC01CD01089597FB092E07260F
:102970000AD077FD04D0E5DF06D000201AF4709568
:1029800061957F4F0895F6F7909581959F4F089533
:10299000A1E21A2EAA1BBB1BFD010DC0AA1FBB1F63
:1029A000EE1FFF1FA217B307E407F50720F0A21BD5
:1029B000B30BE40BF50B661F771F881F991F1A9442
:1029C00069F760957095809590959B01AC01BD016C
:1029D000CF01089597FB092E05260ED057FD04D090
:1029E000D7DF0AD0001C38F45095409530952195DA
:1029F0003F4F4F4F5F4F0895F6F790958095709534
:102A000061957F4F8F4F9F4F0895EE0FFF1F0590E9
:102A1000F491E02D09942F923F924F925F926F9222
:102A20007F928F929F92AF92BF92CF92DF92EF925E
:102A3000FF920F931F93CF93DF93CDB7DEB7CA1BDF
:102A4000DB0B0FB6F894DEBF0FBECDBF09942A880A
:102A5000398848885F846E847D848C849B84AA84B2
:102A6000B984C884DF80EE80FD800C811B81AA813F
:102A7000B981CE0FD11D0FB6F894DEBF0FBECDBF0A
:082A8000ED010895F894FFCF69
:102A880054656D703A200025642F2564004845413F
:102A980054494E4700434F4F4C494E4700000000F1
:102AA80000050D520D6B0D2E00000000008C005229
:042AB8000D6B0D0095
:00000001FF
