:100000000C9462000C948A000C948A000C948A0070
:100010000C948A000C948A000C948A000C948A0038
:100020000C948A000C948A000C948A000C948A0028
:100030000C948A000C948A000C948A000C948A0018
:100040000C94F9090C948A000C949B0B0C948A0074
:100050000C948A000C948A000C948A000C948A00F8
:100060000C948A000C948A000000000024002700F1
:100070002A0000000000250028002B0000000000DE
:1000800023002600290004040404040404040202DA
:100090000202020203030303030301020408102007
:1000A0004080010204081020010204081020000012
:1000B0000007000201000003040600000000000029
:1000C0000000B40D11241FBECFEFD4E0DEBFCDBFC2
:1000D00011E0A0E0B1E0E0ECFBE202C005900D927F
:1000E000A033B107D9F711E0A0E3B1E001C01D9240
:1000F000A43DB107E1F710E0C4ECD0E004C02297C2
:10010000FE010E94A315C23CD107C9F70E94F20963
:100110000C94DE150C94000008954F925F926F923C
:100120007F928F929F92AF92BF92CF92DF92EF9287
:10013000FF920F931F93CF93DF93EC013A014B0192
:1001400078018901CB01BA01A80197010E94B71477
:1001500087FF79C0C801B701A40193010E9403136E
:10016000D62EC72EB82EA92EA6019501652F742F65
:10017000832F922F2EA53FA548A959A90E94BB14F1
:100180002EE3422E512C4C0E5D1EF2012081318156
:10019000428153810E946C137B018C01862F9F2D1D
:1001A000A02FB12F8EA79FA7A8ABB9ABA601950131
:1001B000652F742F832F922FF2012081318142818C
:1001C00053810E946C139B01AC016AA97BA98CA985
:1001D0009DA90E94BB146AAB7BAB8CAB9DAB6E2D13
:1001E0007F2D802F912F20E030E040E85FE30E94D8
:1001F000B71418162CF480E090E0A0E8BFE310C01C
:100200006E2D7F2D802F912F20E030E040E050E0D8
:100210000E946813882344F480E090E0A0E0B0E0FE
:100220008EA79FA7A8ABB9AB6AAE7BAE8CAE9DAED6
:10023000EE96A6019501852F9C2DA32FBA2D8883BC
:100240009983AA83BB83DF91CF911F910F91FF9078
:10025000EF90DF90CF90BF90AF909F908F907F9066
:100260006F905F904F9008956F927F928F929F92C0
:10027000AF92BF92CF92DF92EF92FF920F931F93B4
:10028000CF93DF93EC016A017B0148015901CB0157
:10029000BA01A90198010E94B71487FF63C0C50184
:1002A000B401A70196010E9403134B01782E692E19
:1002B0009301792D832F922F2AA53BA54CA55DA5EF
:1002C0000E94BB14FE01EA5BFF4F20813181428115
:1002D00053810E946C13162F072FB82EA92EA80148
:1002E0009501852F942FA32FB22F8AA79BA7ACA788
:1002F000BDA7652F742F832F922F20E030E040E8B8
:100300005FE30E94B71418162CF480E090E0A0E898
:10031000BFE312C0A8019501652F742F832F922F80
:1003200020E030E040E050E00E946813882344F46D
:1003300080E090E0A0E0B0E08AA79BA7ACA7BDA7B3
:10034000FE01EE5BFF4FC082D182E282F382CA5B84
:10035000DF4F9301882D992DA32FB62D8883998384
:10036000AA83BB83DF91CF911F910F91FF90EF90F4
:10037000DF90CF90BF90AF909F908F907F906F90C5
:1003800008953F924F925F926F927F928F929F92C9
:10039000AF92BF92CF92DF92EF92FF920F931F9393
:1003A000DF93CF93CDB7DEB72A970FB6F894DEBFB1
:1003B0000FBECDBF9A87898749835A836B837C831D
:1003C0004801590126013701CB01BA0120E030E094
:1003D00040E050E00E946813882309F4CCC0C501B6
:1003E000B40120E030E040E050E00E94681387FD57
:1003F000C2C0C701B60120E030E040E050E00E94FA
:10040000681387FDB8C089819A81AB81BC81E98579
:10041000FA8584879587A687B787808A918AA28A7A
:10042000B38AC48AD58AE68AF78A65A176A187A1AC
:1004300090A50E94051420E030E04AE754E40E94B1
:100440006C13E62ED72EC82E392EC501B40120E03C
:1004500030E040E050E00E946813882329F4FF2434
:10046000882400E010E011C060E070E080E89FE3C5
:10047000A50194010E946C132E2D3D2D4C2D532D62
:100480000E94BB14F62E872E8C01A985BA859996F9
:100490008C919997882309F44CC06F2D782D802F6B
:1004A000912F20E030E040E050E00E946813882364
:1004B000B1F1E985FA85608171818281938124811E
:1004C0003581468157810E94BB146D837E838F8363
:1004D000988769817A818B819C81EF2DF82DD801D5
:1004E0009F01AD010E94BB149B01AC016D817E8117
:1004F0008F8198850E946C139B01AC01A985BA85F8
:10050000D2966D917D918D919C91D5970E94BB144F
:10051000E985FA8562AB73AB84AB95AB0AC080E02A
:1005200090E0A0E0B0E0E985FA8582AB93ABA4ABA4
:10053000B5AB89819A81AB81BC81E985FA858083DD
:100540009183A283B3838F2D982DA02FB12F848305
:100550009583A683B783C301B2012E2D3D2D4C2D6B
:10056000532D0E946C13A985BA8518966D937D93BF
:100570008D939C931B972A960FB6F894DEBF0FBEFF
:10058000CDBFCF91DF911F910F91FF90EF90DF9042
:10059000CF90BF90AF909F908F907F906F905F9023
:1005A0004F903F9008950F931F93CF93DF93EC01EB
:1005B00088A1FE01EE5BFF4F8E010A5B1F4F88236F
:1005C00019F0AE8DBF8D02C0AA8DBB8D6D917D914E
:1005D0008D919C9120813181428153810E9403132E
:1005E000F80120813181428153810E946C136EABEE
:1005F0007FAB88AF99AF8EA99FA9A8ADB9AD8AA7E7
:100600009BA7ACA7BDA7E88DF98D60817181828120
:1006100093812AAD3BAD4CAD5DAD0E940313FE014D
:10062000FE9620813181428153810E946C136EA716
:100630007FA788AB99AB80E090E0A0E0B0E08AAB08
:100640009BABACABBDABDF91CF911F910F910895E8
:100650000F931F93CF93DF93EC018B01611571050D
:1006600031F089A5882319F4CE010E94D30219A67E
:100670000115110511F081E089A7DF91CF911F913C
:100680000F9108952F923F924F925F926F927F92B7
:100690008F929F92AF92BF92CF92DF92EF92FF9292
:1006A0000F931F93CF93DF93EC01161617060CF0F0
:1006B00049C01B01442437FC4094542CC201B101B1
:1006C0000E9407145B016C016DA17EA18FA198A50A
:1006D0000E9405147B018C01C601B501A801970198
:1006E0000E946C133B014C016C817D818E819F8146
:1006F000A40193010E94BB146C837D838E839F832E
:10070000C801B701A60195010E946C139B01AC01C1
:100710006AA97BA98CA99DA90E94BB146AAB7BAB7B
:100720008CAB9DAB688579858A859B85A4019301F7
:100730000E94BB14688779878A879B872DA23EA277
:100740004FA258A6DF91CF911F910F91FF90EF908C
:10075000DF90CF90BF90AF909F908F907F906F90E1
:100760005F904F903F902F900895FC01E65BFF4F04
:1007700080810895FC0181A590E00895FC0152ADAF
:1007800043AD34AD25AD652F742F832F922F08957F
:10079000FC01FE96DC01DA966D917D918D919C9124
:1007A000DD9720813181428153810E940413089595
:1007B000FC01EE5BFF4F5081418132812381652F27
:1007C000742F832F922F0895DC01AE5BBF4FFC0185
:1007D000EA5BFF4F6D917D918D919C9120813181DC
:1007E000428153810E9404130895FC0185A196A1C2
:1007F0000895FC015485458536852785652F742F1E
:10080000832F922F0895FC015089418932892389D1
:10081000652F742F832F922F0895FC0154894589E9
:1008200036892789652F742F832F922F08952F9251
:100830003F924F925F926F927F928F929F92AF9270
:10084000BF92CF92DF92EF92FF920F931F93CF93BD
:10085000DF93EC01FC01E65BFF4F108289A5882342
:1008600009F4AAC10E94410A1B012C0189A19AA185
:10087000ABA1BCA1281639064A065B0608F49CC148
:10088000AAACBBACCCACDDACFE01FE966080718046
:1008900082809380E88DF98D60817181828193815E
:1008A000A60195010E940313A40193010E946C13F9
:1008B0007B018C017F2D912F20E030E040E85FE349
:1008C0000E94B71418162CF4EE24FF2400E81FE34E
:1008D00010C06E2D7F2D802F912F20E030E040E062
:1008E00050E00E946813882324F4EE24FF2400E0E3
:1008F00010E0EC8DFD8D6081718182819381A60174
:1009000095010E940313A40193010E946C13D62E3B
:10091000C72EB82EA92EA6019501652F742F832FFF
:10092000922F20E030E040E85FE30E94B7141816F1
:100930003CF4DD24CC2460E8B62E5FE3A52E12C083
:10094000A6019501652F742F832F922F20E030E0B0
:1009500040E050E00E946813882324F4DD24CC2476
:10096000BB24AA24A6019501652F7C2D832F9A2DE7
:100970002E2D3F2D402F512F0E940313D62EC72E10
:10098000B82EA92E6AA47BA48CA49DA4C401B30193
:1009900020E030E040E85FE30E94B714882374F061
:1009A000A6019501652F742F832F922F20E030E050
:1009B00040E050E00E94B714181644F1C401B3019E
:1009C00020E030E040E050E00E946813181674F018
:1009D000A6019501652F7C2D832F9A2D20E030E014
:1009E00040E050E00E94681387FD10C06AA97BA90F
:1009F0008CA99DA9D601F5012B2F3C2D4F2F5A2DE7
:100A00000E9404136AAB7BAB8CAB9DAB6EA47FA43E
:100A100088A899A888A18823E1F0AE8DBF8DFE013A
:100A2000EE5BFF4F6D917D918D919C912081318185
:100A3000428153810E940313FE01EA5BFF4F208134
:100A40003181428153810E946C136EAB7FAB88AFC2
:100A500099AF6C817D818E819F812AA93BA94CA988
:100A60005DA90E94BB149B01AC01D601F5016B2F5F
:100A70007C2D8F2F9A2D0E9404135B016C016E2D2B
:100A80007F2D802F912FA40193010E9403132885AD
:100A900039854A855B850E94BB149B01AC01C60168
:100AA000B5010E940313288139814A815B810E942C
:100AB000BB142EA93FA948AD59AD0E940413D62EF0
:100AC000C72EB82EA92EA6019501652F742F832F4E
:100AD000922F20E030E040E050E00E94681388232D
:100AE0002CF4DD24CC24BB24AA2414C0A601950137
:100AF000652F742F832F922F20E030E040E85FE3D2
:100B00000E94B714181634F4DD24CC2440E8B42E27
:100B10003FE3A32EA6019501852F9C2DA32FBA2D6F
:100B20008AA79BA7ACA7BDA78E2D9F2DA02FB12F65
:100B30008EA79FA7A8ABB9AB0A8D1B8DFE01EA5B00
:100B4000FF4FA6019501652F7C2D832F9A2D2081C3
:100B50003181428153810E94BB14FE01EE5BFF4F45
:100B600020813181428153810E940413F801608306
:100B70007183828393832DA13EA14FA158A589A1A2
:100B80009AA1ABA1BCA1820F931FA41FB51F89A37B
:100B90009AA3ABA3BCA382159305A405B50540F4A5
:100BA000220E331E441E551E29A23AA24BA25CA25D
:100BB000C65BDF4F81E08883DF91CF911F910F915A
:100BC000FF90EF90DF90CF90BF90AF909F908F906D
:100BD0007F906F905F904F903F902F9008952F924D
:100BE0003F924F925F926F927F928F929F92AF92BD
:100BF000BF92CF92DF92EF92FF920F931F93DF93FA
:100C0000CF9300D000D0CDB7DEB74C017A83698393
:100C10001A013C832B832701380140E050E060E05B
:100C200070E000E010EC2FE734E40E948D00C40176
:100C300040E050E060E070E000E010E02FE733E4D7
:100C40000E94340188EE93E0A0E0B0E0F40185A3B7
:100C500096A3A7A3B0A7C401B301A2019601850181
:100C6000C98CDA8CEB8CFC8C0E94C1010E94410A79
:100C7000F40161A372A383A394A311A6338E228EE1
:100C800089819A81918F808F8B819C81958F848FB0
:100C90000F900F900F900F90CF91DF911F910F91B8
:100CA000FF90EF90DF90CF90BF90AF909F908F908C
:100CB0007F906F905F904F903F902F9008954F924C
:100CC0005F926F927F928F929F92AF92BF92CF92DC
:100CD000DF92EF92FF920F931F93DF93CF93CDB7E5
:100CE000DEB73C012801870176016501540100D07F
:100CF00000D08B899C89AD89BE89EDB7FEB7818311
:100D00009283A383B483C3010E94EF0581E0F301C2
:100D100080A3578E468E0F900F900F900F90C301B7
:100D20000E94D302CF91DF911F910F91FF90EF901E
:100D3000DF90CF90BF90AF909F908F907F906F90FB
:100D40005F904F9008954F925F926F927F928F9233
:100D50009F92AF92BF92CF92DF92EF92FF920F934A
:100D60001F93DF93CF93CDB7DEB73C0128018701F6
:100D700076016501540100D000D08B899C89AD8932
:100D8000BE89EDB7FEB781839283A383B483C30189
:100D90000E94EF0581E0F30180A3578E468E0F90ED
:100DA0000F900F900F90C3010E94D302CF91DF915B
:100DB0001F910F91FF90EF90DF90CF90BF90AF9079
:100DC0009F908F907F906F905F904F9008958F923B
:100DD0009F92AF92BF92CF92DF92EF92FF920F93CA
:100DE0001F93DF93CF93CDB7DEB74C0100D000D077
:100DF0008F859889A989BA89EDB7FEB781839283D7
:100E0000A383B483C4010E94EF05F40110A20F90E4
:100E10000F900F900F90C4010E94D302CF91DF91E9
:100E20001F910F91FF90EF90DF90CF90BF90AF9008
:100E30009F908F9008958F929F92AF92BF92CF9282
:100E4000DF92EF92FF920F931F93DF93CF93CDB773
:100E5000DEB74C0100D000D08F859889A989BA8966
:100E6000EDB7FEB781839283A383B483C4010E944C
:100E7000EF05F40110A20F900F900F900F90C40196
:100E80000E94D302CF91DF911F910F91FF90EF90BD
:100E9000DF90CF90BF90AF909F908F9008952F924A
:100EA0003F925F926F927F928F929F92AF92BF928A
:100EB000CF92DF92EF92FF920F931F93CF93DF9326
:100EC000E82EEB011A01C22E532E622E732E8824B7
:100ED00099243DC08E2D60E00E94020B8DE061E000
:100EE0000E94020B8DE060E00E94020B7BE0A72EC7
:100EF000B12C8DE061E00E94020B8CE00E944E0B51
:100F00000A2C02C0880F991F0A94E2F7880E991ED6
:100F10008DE060E00E94020B0894A108B1088FEFF9
:100F2000A8168FEFB80629F78DE061E00E94020B4A
:100F30008CE00E944E0B5C018DE060E00E94020B91
:100F40008E2D61E00E94020B08946108710816144E
:100F500017040CF4BFCFC4016C2D752D0E943D15F4
:100F6000260E371E2097C1F4B10180E090E00E9468
:100F7000051420E030E040E85EE30E94BB1426E662
:100F800036E646EE5FE30E94BB1420E030E040E02E
:100F900052E40E9404130EC0C130D10579F4B101AE
:100FA00080E090E00E94051420E030E040E85EE33D
:100FB0000E94BB14F62E072F182FD92EA114B104AE
:100FC00019F06FE077E20CC06F2D702F812F9D2DEF
:100FD00020E030E040E251E40E94BB140E94D913AB
:100FE000CB01DF91CF911F910F91FF90EF90DF9098
:100FF000CF90BF90AF909F908F907F906F905F90B9
:101000003F902F90089566E070E080E090E00E94AD
:10101000750A0895EF92FF920F931F93CF93DF937A
:101020007C01EC0109900020E9F7C81BD90B22973D
:1010300000E010E00EC0F701E00FF11F81EC91E03D
:10104000608140E050E00E94300F0E9403080F5F73
:101050001F4FC017D1077CF7DF91CF911F910F91E0
:10106000FF90EF900895CF92DF92EF92FF920F934F
:101070001F93DF93CF93CDB7DEB761970FB6F89488
:10108000DEBF0FBECDBF81EC91E06EEF70E040E0BF
:1010900050E00E941D0F0E94030881EC91E060E87F
:1010A00070E040E050E00E941D0F0E94030881ECB8
:1010B00091E06EEF70E040E050E00E941D0F0E9452
:1010C000030881EC91E061E070E040E050E00E94B4
:1010D0001D0F0E94030840913001509131018BE0B7
:1010E00090E061E070E02AE030E00E944F078C0160
:1010F000409132015091330187E090E061E070E06F
:101100002AE030E00E944F077C01C8016AE070E0ED
:101110000E9451158B01F999FECF12BC11BCF89AAF
:1011200080B590E00817190734F488E061E00E9468
:10113000020B8BE205C088E060E00E94020B8DE2AA
:10114000F999FECF12BC11BCF89A90B52DB73EB7F5
:101150002A5030400FB6F8943EBF0FBE2DBFEDB7FA
:10116000FEB731966E010894C11CD11CADB7BEB755
:101170001296DC92CE92119720E031E033832283E5
:101180001583048396831782992787FD909591870D
:1011900080870E9469102DB73EB7265F3F4F0FB67C
:1011A000F8943EBF0FBE2DBFC6010E940A0881EC15
:1011B00091E06EEF70E040E050E00E941D0F0E9451
:1011C000030881EC91E060EC70E040E050E00E94A8
:1011D0001D0F0E940308C7016AE070E00E945115CC
:1011E0008B01F999FECF81E090E092BD81BDF89A24
:1011F00080B590E00817190734F486E061E00E949A
:10120000020B8BE205C086E060E00E94020B8DE2DB
:10121000F999FECF21E030E032BD21BDF89A90B5BA
:10122000ADB7BEB71A970FB6F894BEBF0FBEADBF2D
:10123000EDB7FEB731967E010894E11CF11C1296C1
:10124000FC92EE9211972DE031E0338322831583D7
:10125000048396831782992787FD909591878087CD
:101260000E9469102DB73EB7265F3F4F0FB6F89426
:101270003EBF0FBE2DBFC7010E940A088AE00E9430
:101280004E0B8130910591F4F999FECF12BC11BC3F
:10129000F89A80B5F999FECF1FBA12BC11BC8F5FC6
:1012A00080BD0FB6F894FA9AF99A0FBE89E00E94B1
:1012B0004E0B8130910591F4F999FECF12BC11BC0F
:1012C000F89A80B5F999FECF1FBA12BC11BC8150B3
:1012D00080BD0FB6F894FA9AF99A0FBE85E00E9485
:1012E0004E0B81309105B1F4F999FECF81E090E089
:1012F00092BD81BDF89A80B5F999FECF1FBA21E061
:1013000030E032BD21BD8F5F80BD0FB6F894FA9AF0
:10131000F99A0FBE84E00E944E0B81309105B1F422
:10132000F999FECF81E090E092BD81BDF89A80B539
:10133000F999FECF1FBA21E030E032BD21BD8150C6
:1013400080BD0FB6F894FA9AF99A0FBE6CE271E07C
:1013500080E090E00E94750A61960FB6F894DEBFB7
:101360000FBECDBFCF91DF911F910F91FF90EF90F6
:10137000DF90CF9008958AE060E00E94E30A89E060
:1013800060E00E94E30A8CE060E00E94E30A8DE0E6
:1013900061E00E94E30A88E061E00E94E30A88E0DD
:1013A00060E00E94020B8BE061E00E94E30A8BE0A8
:1013B00061E00E94020B87E061E00E94E30A87E09F
:1013C00061E00E94020B81EC91E040E659E060E0B0
:1013D00070E00E94390C64EF71E080E090E00E94C0
:1013E000750A08950E94A90A0E94BB090E94330849
:1013F000FDCF1F920F920FB60F9211242F933F93A0
:101400008F939F93AF93BF9380913801909139014F
:10141000A0913A01B0913B0130913C010196A11D90
:10142000B11D232F2D5F2D3720F02D570196A11DC3
:10143000B11D20933C018093380190933901A09312
:101440003A01B0933B018091340190913501A09114
:101450003601B09137010196A11DB11D8093340171
:1014600090933501A0933601B0933701BF91AF91AE
:101470009F918F913F912F910F900FBE0F901F90D2
:1014800018958FB7F8942091380130913901409127
:101490003A0150913B018FBFB901CA0108959FB72E
:1014A000F8942091340130913501409136015091EA
:1014B000370186B5A89B06C08F3F21F02F5F3F4FB5
:1014C0004F4F5F4F9FBF542F432F322F2227280F9C
:1014D000311D411D511D82E0220F331F441F551F36
:1014E0008A95D1F7B901CA010895EF92FF920F933F
:1014F0001F937B018C018FB7F894209138013091B4
:10150000390140913A0150913B018FBF6FB7F89478
:101510008091380190913901A0913A01B0913B013D
:101520006FBF821B930BA40BB50BE816F9060A07D5
:101530001B0760F71F910F91FF90EF90089501979F
:1015400039F0880F991F880F991F02970197F1F7BB
:101550000895789484B5826084BD84B5816084BD2B
:1015600085B5826085BD85B5816085BDEEE6F0E01C
:10157000808181608083E1E8F0E080818260808307
:10158000808181608083E0E8F0E0808181608083F9
:10159000E1EBF0E0808184608083E0EBF0E080812B
:1015A00081608083EAE7F0E08081846080838081CD
:1015B0008260808380818160808380818068808375
:1015C0001092C1000895282F30E0C90186569F4F20
:1015D000FC019491F901EA57FF4FE491EE2389F061
:1015E000F0E0EE0FFF1FE859FF4FA591B49166237D
:1015F00029F48C91909589238C9308958C91892B53
:101600008C930895482F50E0CA0182559F4FFC01EA
:1016100094919A0126563F4FF9012491FA01EA5715
:10162000FF4FE491EE23C9F1992331F1933021F476
:10163000909180009F7705C0943031F490918000A4
:101640009F7D9093800018C0913019F494B59F77D6
:1016500004C0923021F494B59F7D94BD0DC09630A6
:1016600021F49091B0009F7705C0973029F49091B4
:10167000B0009F7D9093B000F0E0EE0FFF1FEE589A
:10168000FF4FA591B491662329F48C912095822374
:101690008C9308958C91822B8C930895282F30E0A1
:1016A000C90182559F4FFC019491A90146565F4F95
:1016B000FA014491F901EA57FF4FE491EE2319F43E
:1016C00020E030E036C0992331F1933021F490913D
:1016D00080009F7705C0943031F4909180009F7D09
:1016E0009093800018C0913019F494B59F7704C08E
:1016F000923021F494B59F7D94BD0DC0963021F4B5
:101700009091B0009F7705C0973029F49091B00078
:101710009F7D9093B000F0E0EE0FFF1FE458FF4F65
:10172000A591B4918C9120E030E0842311F021E068
:1017300030E0C90108951F920F920FB60F92112445
:101740002F933F934F935F936F937F938F939F93C9
:10175000AF93BF93EF93FF934091C6002091BD01DB
:101760003091BE01C901019660E870E00E945115F8
:10177000BC018091BF019091C0016817790741F0C9
:10178000235C3E4FF90140837093BE016093BD011D
:10179000FF91EF91BF91AF919F918F917F916F9149
:1017A0005F914F913F912F910F900FBE0F901F901F
:1017B00018958F92AF92CF92DF92EF92FF920F9394
:1017C0001F93DF93CF93CDB7DEB7FC018EE191E09D
:1017D0009183808373836283558344833783268315
:1017E00011870087F386E286D586C486A68687861B
:1017F0008D85808B8E85818B8F85828BCF91DF91BC
:101800001F910F91FF90EF90DF90CF90AF908F904E
:1018100008958F92AF92CF92DF92EF92FF920F9343
:101820001F93DF93CF93CDB7DEB7FC018EE191E03C
:1018300091838083738362835583448337832683B4
:1018400011870087F386E286D586C486A6868786BA
:101850008D85808B8E85818B8F85828BCF91DF915B
:101860001F910F91FF90EF90DF90CF90AF908F90EE
:1018700008958F929F92AF92BF92DF92EF92FF9264
:101880000F931F93CF93DF93EC017A018B014134C7
:1018900082E458078FE0680780E078070CF07FC08B
:1018A00060E874E88EE190E0A80197010E94861537
:1018B000CA01B901615070408040904022E030E0A0
:1018C00040E050E00E94861549015A01A5019401AB
:1018D000209530954095509594E0220F331F441F7A
:1018E000551F9A95D1F760E074E284EF90E00E9472
:1018F0008615CA01B9012FEF30E040E050E00E94A8
:101900001E15A80197010E948615C90121503F4F5D
:10191000121613061CF4D82EDA9403C0DD24D394D7
:10192000D81A60E079E08DE390E0A80197010E9469
:101930008615CA01B901615070408040904022E094
:1019400030E040E050E00E948615209530954095AB
:10195000509583E0220F331F441F551F8A95D1F7FE
:1019600060E074E284EF90E00E948615CA01B9013C
:101970002FEF30E040E050E00E941E15A8019701D3
:101980000E948615C90121503F4F121613061CF400
:10199000282F215002C021E0281B2D1500F5E885D5
:1019A000F98581E090E00A8802C0880F991F0A94A7
:1019B000E2F7808360E079E08DE390E0A801970191
:1019C0000E948615CA01B901615070408040904064
:1019D00022E030E040E050E00E94861504C0E88537
:1019E000F98510829401EC81FD813083EE81FF81C5
:1019F0002083EA85FB85808121E030E0A9010E8407
:101A000002C0440F551F0A94E2F7842B8083EA85B5
:101A1000FB858081A9010F8402C0440F551F0A94E1
:101A2000E2F7842B8083EA85FB858081088802C0E9
:101A3000220F331F0A94E2F7822B8083DF91CF912C
:101A40001F910F91FF90EF90DF90BF90AF909F900C
:101A50008F900895FC01A285B3853C9181E090E0D0
:101A6000AC01068402C0440F551F0A94E2F7242FEC
:101A7000209523232C93A285B3853C91AC01078448
:101A800002C0440F551F0A94E2F7242F2095232308
:101A90002C93A285B3852C91008802C0880F991FD2
:101AA0000A94E2F7809582238C930895FC012281A9
:101AB0003381F901E058FF4F8081918180589F4F19
:101AC0002E573F4FF90120813181821B930B60E833
:101AD00070E00E9451150895DC0112962D913C9101
:101AE0001397F901EE57FF4F80819181D901A058DA
:101AF000BF4F4D915C9111974817590719F42FEF7B
:101B00003FEF0CC0280F391FD9012C91019660E8D6
:101B100070E00E9451159183808330E0C9010895DF
:101B2000DC0112968D919C911397FC01E058FF4FB8
:101B30008E579F4FDC018D919C91119791838083EB
:101B40000895FC01A085B18521898C9190E0022E39
:101B500002C0959587950A94E2F780FFF6CF04843A
:101B6000F585E02D608308958EE191E09093C201A8
:101B70008093C1018DE391E09093C4018093C301F0
:101B800085EC90E09093C6018093C50184EC90E0D1
:101B90009093C8018093C70180EC90E09093CA01B4
:101BA0008093C90181EC90E09093CC018093CB01AC
:101BB00086EC90E09093CE018093CD0184E08093F9
:101BC000CF0183E08093D00187E08093D10185E04D
:101BD0008093D20181E08093D30108950F931F93E6
:101BE000CF93DF93EC018B0109C00F5F1F4FE8819A
:101BF000F9810190F081E02DCE010995F801608115
:101C0000662399F7DF91CF911F910F910895EF927D
:101C1000FF920F931F93CF93DF93EC018B017A0117
:101C20000DC0F80161918F01E881F9810190F08187
:101C3000E02DCE0109950894E108F108E114F104C2
:101C400081F7DF91CF911F910F91FF90EF90089551
:101C5000DC01ED91FC910280F381E02D099508955E
:101C60002F923F924F925F926F927F928F929F92AC
:101C7000AF92BF92CF92DF92EF92FF920F931F939A
:101C8000DF93CF93CDB7DEB7A2970FB6F894DEBF40
:101C90000FBECDBF1C015A016B01411551056105F5
:101CA000710549F440E350E060E070E020E030E08E
:101CB0000E94E70E55C0EE24FF248701622E772490
:101CC000882499242E010894411C511CC2018E0DB8
:101CD0009F1D9AA389A3C601B501A40193010E9487
:101CE0006415E9A1FAA160830894E11CF11C011DAF
:101CF000111DC601B501A40193010E946415A22E15
:101D0000B32EC42ED52EA114B104C104D104F1F612
:101D1000570168010894A108B108C108D108A40CB2
:101D2000B51C19C00894E108F10801091109F50171
:101D300040814A3010F4405D01C0495C552747FDA1
:101D40005095652F752FC10120E030E00E94E70E0D
:101D50000894A108B108E114F1040105110511F777
:101D6000A2960FB6F894DEBF0FBECDBFCF91DF9124
:101D70001F910F91FF90EF90DF90CF90BF90AF90A9
:101D80009F908F907F906F905F904F903F902F909B
:101D900008952115310549F4DC01ED91FC91019084
:101DA000F081E02D642F099508950E94300E08956A
:101DB0009A01AB0160E070E00E94C90E08959A019B
:101DC000462F50E060E070E00E94C90E0895EF9247
:101DD000FF920F931F93CF93DF93EC017A018B0156
:101DE0002115310541F4E881F9810190F081E02D60
:101DF000642F09951BC02A303105B1F477FF10C05C
:101E00004DE250E060E070E020E030E00E94E70E3C
:101E100010950095F094E094E11CF11C011D111D3A
:101E2000CE01B801A7012AE00E94300EDF91CF91C8
:101E30001F910F91FF90EF900895EF92FF920F93F3
:101E40001F939A017B010027F7FC0095102FB80122
:101E5000A7010E94E70E1F910F91FF90EF90089548
:101E60009A01462F552747FD5095652F752F0E94E3
:101E7000E70E0895CF93DF93EC014DE050E060E072
:101E800070E020E030E00E94E70ECE014AE050E032
:101E900060E070E020E030E00E94E70EDF91CF913B
:101EA0000895CF93DF93EC010E94C90ECE010E94EA
:101EB0003A0FDF91CF910895CF93DF93EC019A0110
:101EC000AB0160E070E00E94C90ECE010E943A0FA3
:101ED000DF91CF910895CF93DF93EC019A01462FC4
:101EE00050E060E070E00E94C90ECE010E943A0FFF
:101EF000DF91CF910895CF93DF93EC010E94280EDC
:101F0000CE010E943A0FDF91CF910895CF93DF93D6
:101F1000EC010E94E70ECE010E943A0FDF91CF91B3
:101F20000895CF93DF93EC01CB019A01AC016627B2
:101F300057FD6095762FCE010E94E70ECE010E94DC
:101F40003A0FDF91CF910895CF93DF93EC019A017F
:101F5000462F552747FD5095652F752F0E94E70E98
:101F6000CE010E943A0FDF91CF9108959F92AF92D8
:101F7000BF92CF92DF92EF92FF920F931F93CF9376
:101F8000DF93EC016A017B01122FCB01BA0120E043
:101F900030E040E050E00E94681388236CF4CE01EA
:101FA0004DE250E060E070E020E030E00E94E70E9B
:101FB000F7FAF094F7F8F09400E050E040E030E0F9
:101FC0002FE311C0DA01F9016B2F742F8F2F922F9D
:101FD00020E030E040E251E40E946C13562F472F7E
:101FE000382F292F0F5F011768F3C701B601DA01F7
:101FF000F9012B2F342F4F2F5E2F0E940413D62E62
:10200000B72EA82E992E0E94D913F62EC72E082F70
:10201000E92ECE014F2D5C2D602F7E2D2AE030E081
:102020000E94C90E112329F0CE0164E271E00E94E2
:10203000280E6F2D7C2D802F9E2D0E9405149B0154
:10204000AC016D2D7B2D8A2D992D0E94031325C087
:1020500020E030E040E251E40E94BB14062FB72E8E
:10206000A82E992E0E94D4136B01EE24D7FCE09485
:10207000FE2CCE01B701A6012AE030E00E94E70E57
:10208000C701B6010E9407149B01AC01602F7B2D94
:102090008A2D992D0E94031311501123C9F6DF9147
:1020A000CF911F910F91FF90EF90DF90CF90BF9055
:1020B000AF909F9008950E94B60F0895CF93DF933D
:1020C000EC010E94B60FCE010E943A0FDF91CF9132
:1020D0000895AEE0B0E0EFE6F0E10C94B5150D899F
:1020E0001E8986E08C831A8309838FEF9FE79E8386
:1020F0008D839E01275E3F4FCE0101966F89788DBB
:10210000A9010E948D102F813885020F131FF8013D
:1021100010822E96E4E00C94D115ABE0B0E0E3E938
:10212000F0E10C94A7153C012B016A01FC01178218
:102130001682838181FD03C06FEF7FEFBFC19AE0FC
:10214000892E1E010894211C311CF3012381F20108
:1021500023FD859123FF81912F01882309F4ABC1D1
:10216000853239F423FD859123FF81912F0185323A
:1021700029F490E0B3010E947912E7CF982FFF2451
:10218000EE249924FFE1FF15B8F0903261F093320C
:1021900081F09B3231F09D3249F0903369F441E097
:1021A00024C052E0F52A84E0F82A28C098E0F92AF1
:1021B00025C0E0E1FE2A22C0F7FC29C0892F805308
:1021C0008A3070F4F6FE05C0989C902C1124980E6D
:1021D00015C0E89CE02C1124E80EF0E2FF2A0EC0A6
:1021E0009E3229F4F6FC67C140E4F42A07C09C360D
:1021F00019F450E8F52A02C0983649F4F20123FD9B
:10220000959123FF91912F01992309F0BBCF892F3D
:102210008554833018F08052833038F444E050E025
:10222000C40ED51E5FE359830FC0933531F1933649
:1022300021F0933709F056C00BC0F60180818983E5
:1022400042E050E0C40ED51E510101E010E012C082
:10225000F601A080B180F6FC03C06FEF7FEF02C0F3
:10226000692D70E042E050E0C40ED51EC5010E9409
:102270006E128C015FE7F52214C0F601A080B180D8
:10228000F6FC03C06FEF7FEF02C0692D70E042E003
:1022900050E0C40ED51EC5010E9463128C0150E8A7
:1022A000F52AF3FE07C01AC080E290E0B3010E9455
:1022B0007912EA948E2D90E008171907A8F30EC042
:1022C000F501F7FC8591F7FE81915F0190E0B30184
:1022D0000E947912E110EA94015010400115110595
:1022E00079F7E6C0943611F0993669F5F7FE08C023
:1022F000F601208131814281538184E090E00AC05F
:10230000F601808191819C01442737FD4095542F2F
:1023100082E090E0C80ED91E9FE6F92257FF09C05F
:1023200050954095309521953F4F4F4F5F4FE0E8D6
:10233000FE2ACA01B901A1012AE030E00E94A512DB
:10234000B82EB2183CC0953729F41F2D1F7E2AE005
:1023500030E019C01F2D197F983589F09F3631F074
:10236000903739F0983709F0A6C004C028E030E073
:102370000AC0106114FD146020E130E004C014FDB7
:10238000166020E132E017FF08C0F601608171811C
:102390008281938144E050E008C0F6018081918100
:1023A000BC0180E090E042E050E0C40ED51EA101E7
:1023B0000E94A512B82EB2188FE7F82EF122F6FE71
:1023C0000BC05EEFF522B91438F4F4FE07C0F2FC3E
:1023D00005C08FEEF82202C01B2D01C0192DF4FE9E
:1023E0000DC0FE01EB0DF11D8081803319F499EED3
:1023F000F92208C01F5FF2FE05C003C08F2D86784A
:1024000009F01F5F0F2DF3FC14C0F0FE0FC01E1566
:1024100010F09B2C0BC09B2C9E0C911A1E2D06C0FD
:1024200080E290E0B3010E9479121F5F1E15C0F395
:1024300004C01E1510F4E11A01C0EE2404FF0FC001
:1024400080E390E0B3010E94791202FF1DC001FDFC
:1024500003C088E790E00EC088E590E00BC0802FB5
:10246000867891F001FF02C08BE201C080E2F7FCA8
:102470008DE290E0B3010E94791206C080E390E003
:10248000B3010E9479129A94B914C0F3BA94F1017D
:10249000EB0DF11D808190E0B3010E947912BB2009
:1024A000A9F706C080E290E0B3010E947912EA9495
:1024B000EE20C1F74ACEF30166817781CB012B96DE
:1024C000E2E10C94C315FC010590615070400110CD
:1024D000D8F7809590958E0F9F1F0895FC0161504D
:1024E000704001900110D8F7809590958E0F9F1F36
:1024F00008950F931F93CF93DF938C01EB018B8192
:1025000081FF1BC082FF0DC02E813F818C819D8188
:102510002817390764F4E881F9810193F983E88386
:1025200006C0E885F985802F0995892B31F48E81C5
:102530009F8101969F838E8302C00FEF1FEFC8011A
:10254000DF91CF911F910F910895FA01AA272830AA
:1025500051F1203181F1E8946F936E7F6E5F7F4F70
:102560008F4F9F4FAF4FB1E03ED0B4E03CD0670FEC
:10257000781F891F9A1FA11D680F791F8A1F911D3F
:10258000A11D6A0F711D811D911DA11D20D009F48F
:1025900068943F912AE0269F11243019305D3193D1
:1025A000DEF6CF010895462F4770405D4193B3E0BA
:1025B0000FD0C9F7F6CF462F4F70405D4A3318F061
:1025C000495D31FD4052419302D0A9F7EACFB4E012
:1025D000A6959795879577956795BA95C9F70097CA
:1025E0006105710508959B01AC010A2E069457956B
:1025F000479537952795BA95C9F7620F731F841FC2
:10260000951FA01D08955058BB27AA270ED075C14D
:1026100066D130F06BD120F031F49F3F11F41EF4FD
:102620005BC10EF4E095E7FB51C1E92F77D180F350
:10263000BA17620773078407950718F071F49EF5BF
:102640008FC10EF4E0950B2EBA2FA02D0B01B9010E
:1026500090010C01CA01A0011124FF27591B99F018
:10266000593F50F4503E68F11A16F040A22F232F24
:10267000342F4427585FF3CF469537952795A79574
:10268000F0405395C9F77EF41F16BA0B620B730B1B
:10269000840BBAF09150A1F0FF0FBB1F661F771F8C
:1026A000881FC2F70EC0BA0F621F731F841F48F441
:1026B000879577956795B795F7959E3F08F0B3CFC7
:1026C0009395880F08F09927EE0F979587950895B1
:1026D000D9D008F481E008950CD00FC107D140F0A3
:1026E000FED030F021F45F3F19F0F0C0511139C134
:1026F000F3C014D198F39923C9F35523B1F3951B73
:10270000550BBB27AA2762177307840738F09F5F12
:102710005F4F220F331F441FAA1FA9F333D00E2E81
:102720003AF0E0E830D091505040E695001CCAF7EE
:1027300029D0FE2F27D0660F771F881FBB1F2617B3
:1027400037074807AB07B0E809F0BB0B802DBF0186
:10275000FF2793585F4F2AF09E3F510568F0B6C09F
:1027600000C15F3FECF3983EDCF386957795679563
:10277000B795F7959F5FC9F7880F911D9695879537
:1027800097F90895E1E0660F771F881FBB1F621756
:1027900073078407BA0720F0621B730B840BBA0B14
:1027A000EE1F88F7E095089504D06894B111D9C060
:1027B0000895BCD088F09F5790F0B92F9927B75152
:1027C000A0F0D1F0660F771F881F991F1AF0BA95F5
:1027D000C9F712C0B13081F0C3D0B1E00895C0C0D4
:1027E000672F782F8827B85F39F0B93FCCF38695EB
:1027F00077956795B395D9F73EF490958095709548
:1028000061957F4F8F4F9F4F0895E89409C097FBC4
:102810003EF490958095709561957F4F8F4F9F4FB7
:102820009923A9F0F92F96E9BB279395F6958795FB
:1028300077956795B795F111F8CFFAF4BB0F11F4BE
:1028400060FF1BC06F5F7F4F8F4F9F4F16C0882365
:1028500011F096E911C0772321F09EE8872F762F9B
:1028600005C0662371F096E8862F70E060E02AF0DC
:102870009A95660F771F881FDAF7880F96958795C8
:1028800097F90895990F0008550FAA0BE0E8FEEF9D
:1028900016161706E807F907C0F012161306E40724
:1028A000F50798F0621B730B840B950B39F40A261D
:1028B00061F0232B242B252B21F408950A2609F4FB
:1028C000A140A6958FEF811D811D089597F99F67FF
:1028D00080E870E060E008959FEF80EC08950024A8
:1028E0000A941616170618060906089500240A9475
:1028F00012161306140605060895092E0394000CFB
:1029000011F4882352F0BB0F40F4BF2B11F460FF89
:1029100004C06F5F7F4F8F4F9F4F089557FD9058B2
:10292000440F551F59F05F3F71F04795880F97FB93
:10293000991F61F09F3F79F087950895121613064D
:102940001406551FF2CF4695F1DF08C0161617067C
:102950001806991FF1CF86957105610508940895B1
:10296000E894BB2766277727CB0197F908958ADF7C
:1029700008F48FEF08950BD0C0CFB1DF28F0B6DF99
:1029800018F0952309F0A2CFA7CF1124EACFC6DF14
:10299000A0F3959FD1F3950F50E0551F629FF00172
:1029A000729FBB27F00DB11D639FAA27F00DB11DCB
:1029B000AA1F649F6627B00DA11D661F829F222754
:1029C000B00DA11D621F739FB00DA11D621F839FDB
:1029D000A00D611D221F749F3327A00D611D231FB1
:1029E000849F600D211D822F762F6A2F11249F57FF
:1029F00050408AF0E1F088234AF0EE0FFF1FBB1F22
:102A0000661F771F881F91505040A9F79E3F5105C0
:102A100070F05CCFA6CF5F3FECF3983EDCF3869579
:102A200077956795B795F795E7959F5FC1F7FE2B6B
:102A3000880F911D9695879597F90895629FD0010B
:102A4000739FF001829FE00DF11D649FE00DF11D69
:102A5000929FF00D839FF00D749FF00D659FF00D18
:102A60009927729FB00DE11DF91F639FB00DE11D05
:102A7000F91FBD01CF0111240895AA1BBB1B51E111
:102A800007C0AA1FBB1FA617B70710F0A61BB70BDE
:102A9000881F991F5A95A9F780959095BC01CD0183
:102AA000089597FB092E07260AD077FD04D0E5DFAD
:102AB00006D000201AF4709561957F4F0895F6F7BF
:102AC000909581959F4F0895A1E21A2EAA1BBB1BDA
:102AD000FD010DC0AA1FBB1FEE1FFF1FA217B307EA
:102AE000E407F50720F0A21BB30BE40BF50B661F00
:102AF000771F881F991F1A9469F7609570958095C4
:102B000090959B01AC01BD01CF01089597FB092E63
:102B100005260ED057FD04D0D7DF0AD0001C38F4AC
:102B200050954095309521953F4F4F4F5F4F0895F9
:102B3000F6F790958095709561957F4F8F4F9F4FD9
:102B40000895EE0FFF1F0590F491E02D09942F9248
:102B50003F924F925F926F927F928F929F92AF922D
:102B6000BF92CF92DF92EF92FF920F931F93CF937A
:102B7000DF93CDB7DEB7CA1BDB0B0FB6F894DEBF11
:102B80000FBECDBF09942A88398848885F846E8437
:102B90007D848C849B84AA84B984C884DF80EE8081
:102BA000FD800C811B81AA81B981CE0FD11D0FB68A
:102BB000F894DEBF0FBECDBFED010895F894FFCFAE
:102BC0004578743A25642F256420256300426564A6
:102BD0003A25642F25642025630000000000A10D24
:102BE000EE0D070E2E00000000008C00EE0D070E0B
:00000001FF
